:020000040800F2
:10000000680600208901000891010008930100089A
:100010009501000897010008990100080000000000
:100020000000000000000000000000009B0100082C
:100030009D010008000000009F0100084D04000819
:10004000A3010008A3010008A3010008A301000800
:10005000A3010008A3010008A3010008A3010008F0
:10006000A3010008A3010008A3010008A3010008E0
:10007000A3010008A3010008A3010008A3010008D0
:10008000A3010008A3010008A3010008A3010008C0
:10009000A3010008A3010008A3010008A3010008B0
:1000A000A3010008A3010008A3010008A3010008A0
:1000B000A3010008A3010008A3010008A301000890
:1000C000A3010008A3010008A3010008A301000880
:1000D000A3010008A3010008A3010008A301000870
:1000E000A3010008A3010008A301000800F002F822
:1000F00000F03AF80AA090E8000C82448344AAF188
:100100000107DA4501D100F02FF8AFF2090EBAE885
:100110000F0013F0010F18BFFB1A43F0010318473B
:100120000404000024040000103A24BF78C878C1F9
:10013000FAD8520724BF30C830C144BF04680C60ED
:10014000704700000023002400250026103A28BF35
:1001500078C1FBD8520728BF30C148BF0B60704739
:100160001FB51FBD10B510BD00F031F81146FFF7E7
:10017000F7FF00F0B1F900F04FF803B4FFF7F2FF1A
:1001800003BC00F057F800000948804709480047C1
:10019000FEE7FEE7FEE7FEE7FEE7FEE7FEE7FEE737
:1001A000FEE7FEE704480549054A064B7047000094
:1001B00079040008ED0000086800002068060020AF
:1001C000680200206802002070477047704775463B
:1001D00000F02CF8AE4605006946534620F00700B3
:1001E000854618B020B5FFF7DDFFBDE820404FF091
:1001F00000064FF000074FF000084FF0000B21F011
:100200000701AC46ACE8C009ACE8C009ACE8C009DD
:10021000ACE8C0098D46704710B50446AFF30080C6
:100220002046BDE81040FFF7A8BF00000048704717
:100230000400002001491820ABBEFEE726000200A2
:100240007047000000BF1648006800F00200022856
:10025000F9D11348406820F003001149486008466E
:10026000406820F4E06048600846006820F0807034
:1002700008600846006820F480300860084640693D
:1002800040F0010048610846806944F21C2108439F
:10029000034988610846C06940F08150C8617047D1
:1002A0000010024030B504462046012900D1201D2F
:1002B00005681543056005681D43056030BD10B530
:1002C000C36801248C40A343C36022B1C4680123E6
:1002D0008B401C43C46010BD1248006800F03330EE
:1002E00010490860081D00680F4908400D49091DA4
:1002F00008600E4800680E4908400C490860081D57
:10030000006800F03330091D08600A48006800F0FA
:100310003330084908600846406800F033304860D0
:1003200070470000000801403333F3FF000C014028
:1003300033FF3F330010014070B5FFF7CDFF024897
:1003400044682546A84770BD0040000810B500F07D
:1003500001F810BD0CB500200190009033480068F2
:1003600040F480303149086000BF3048006800F434
:10037000003000900198401C0190009818B9019835
:10038000B0F5A06FF1D12948006800F4003010B139
:100390000120009001E0002000900098012843D146
:1003A0002348006840F010002149086008460068B2
:1003B00020F0070008600846006840F0020008606E
:1003C0001A4840681949486008464068486008462D
:1003D000406840F4806048600846406820F47C1023
:1003E00048600846406840F4E810486008460068E5
:1003F00040F08070086000BF0C48006800F000709A
:100400000028F9D00948406820F0030007494860F7
:100410000846406840F00200486000BF034840685A
:1004200000F00C000828F9D10CBD000000100240BB
:1004300000200240044A116800BF034A1268521AA1
:100440008242FAD370470000000000200248006892
:10045000401C0149086070470000002040F2E7306E
:100460004FF0E0214861002088610846006940F0B3
:10047000030008617047000010B51348006840F0A1
:1004800001001149086008464068104908400E49BB
:100490004860084600680E4908400B490860084655
:1004A000006820F4802008600846406820F4FE00C0
:1004B00048604FF41F008860FFF748FF4FF000606E
:1004C0000449086010BD0000001002400000FFF861
:1004D000FFFFF6FE08ED00E0FFF7B4FEFFF7BEFFFA
:1004E000FFF7FAFE00234FF4001201210C48FFF73A
:1004F000D9FE13E000220D210948FFF7E0FE4FF47A
:10050000FA60FFF797FF01220D210548FFF7D7FE9C
:100510004FF4FA60FFF78EFFFFF70EFFEAE70000E7
:100520000010014044050008000000200400000005
:1005300028010008480500080400002064060000A7
:08054000440100080000000066
:04000005080000ED02
:00000001FF
