:020000040800F2
:10400000680600206D4100087541000877410008EE
:10401000794100087B4100087D4100080000000054
:104020000000000000000000000000007F410008C8
:10403000814100080000000083410008E1430008BE
:104040008741000887410008874100088741000830
:104050008741000887410008874100088741000820
:104060008741000887410008874100088741000810
:104070008741000887410008874100088741000800
:1040800087410008874100088741000887410008F0
:1040900087410008874100088741000887410008E0
:1040A00087410008874100088741000887410008D0
:1040B00087410008874100088741000887410008C0
:1040C00087410008874100088741000887410008B0
:1040D00087410008874100088741000887410008A0
:1040E00087410008874100088741000800F002F876
:1040F00000F02CF80AA090E8000C82448344AAF156
:104100000107DA4501D100F021F8AFF2090EBAE853
:104110000F0013F0010F18BFFB1A43F001031847FB
:1041200094030000A40300000023002400250026BF
:10413000103A28BF78C1FBD8520728BF30C148BF0A
:104140000B6070471FB51FBD10B510BD00F031F8F2
:104150001146FFF7F7FF00F087F900F04FF803B4BE
:10416000FFF7F2FF03BC00F057F800000948804752
:1041700009480047FEE7FEE7FEE7FEE7FEE7FEE749
:10418000FEE7FEE7FEE7FEE704480549054A064B61
:10419000704700000D440008ED4000086800002052
:1041A00068060020680200206802002070477047FF
:1041B0007047754600F02CF8AE4605006946534638
:1041C00020F00700854618B020B5FFF7DDFFBDE8F9
:1041D00020404FF000064FF000074FF000084FF06E
:1041E000000BAC46ACE8C009ACE8C009ACE8C009BB
:1041F000ACE8C00921F007018D46704710B50446B0
:10420000AFF300802046BDE81040FFF7A8BF0000D4
:10421000004870470000002001491820ABBEFEE7AF
:10422000260002007047000041F20000C4F20200C4
:1042300001688907FCD5416844F21C2221F0030182
:104240004160416821F4E0614160016821F08071C2
:104250000160016821F480310160416941F0010190
:104260004161816911438161C16941F08151C1613D
:1042700070470000012908BF043001681143016044
:1042800001681943016070474FF0010CC3680CFAD4
:1042900001F18B43002AC36008BF7047C268114315
:1042A000C160704740F60000C4F20100016843F2AB
:1042B000333221F0CC3101604168CFF6F372114006
:1042C0004160D0F800144FF63372C3F23F32114010
:1042D000C0F8001440F60440C4F20100016821F067
:1042E000CC310160D0F8FC1321F0CC31C0F8FC13C4
:1042F000D0F8001421F0CC31C0F800147047000051
:1043000080B500F001F880BD82B041F204000021C8
:10431000C4F202000191009150F8041C41F4803174
:1043200040F8041C50F8041C01F40031009101997C
:1043300001310191009919B90199B1F5A06FF1D13D
:1043400050F8041C890354BF0021012100910099F9
:10435000012936D142F20001C4F202010A6842F09A
:1043600010020A600A6822F007020A600A6842F036
:1043700002020A600168016001680160016841F49D
:1043800080610160016821F47C110160016841F4E1
:10439000E811016050F8041C41F0807140F8041CE1
:1043A00050F8041C8901FBD5016821F0030101606C
:1043B000016841F002010160016801F00C01082967
:1043C000FAD102B07047000040F26001C2F2000171
:1043D0000A6800BF0B689B1A8342FBD3704700003A
:1043E00040F26000C2F200000168013101607047D4
:1043F0004EF21000CEF2000040F2E73141600021A1
:104400008160016841F003010160704780B541F2AD
:104410000000C4F202000168002241F001010160C5
:104420004168CFF6FF021140416001684FF6FF720C
:10443000CFF6F66211400160016821F4802101602D
:10444000416821F4FE0141604FF41F018160FFF7D4
:1044500057FF4EF6085044F20001CEF20000C0F6BD
:104460000001016080BD000041F20004C4F20104BB
:10447000FFF7DAFEFFF7BCFFFFF714FF204601212C
:104480004FF400120023FFF7F5FE00BF20460D2178
:104490000022FFF7F9FE4FF47A70FFF795FF2046F0
:1044A0000D210122FFF7F0FE4FF47A70FFF78CFF29
:1044B000ECE70000C444000800000020680600008B
:0444C0002841000887
:04000005080040EDC2
:00000001FF
